{"abi":[{"type":"constructor","inputs":[],"stateMutability":"nonpayable"},{"type":"receive","stateMutability":"payable"},{"type":"function","name":"FEE_BPS","inputs":[],"outputs":[{"name":"","type":"uint256","internalType":"uint256"}],"stateMutability":"view"},{"type":"function","name":"MIN_DEPOSIT","inputs":[],"outputs":[{"name":"","type":"uint256","internalType":"uint256"}],"stateMutability":"view"},{"type":"function","name":"UPGRADE_INTERFACE_VERSION","inputs":[],"outputs":[{"name":"","type":"string","internalType":"string"}],"stateMutability":"view"},{"type":"function","name":"deposit","inputs":[],"outputs":[{"name":"amount_","type":"uint256","internalType":"uint256"}],"stateMutability":"payable"},{"type":"function","name":"feeBalance","inputs":[],"outputs":[{"name":"balance","type":"uint256","internalType":"uint256"}],"stateMutability":"view"},{"type":"function","name":"initialize","inputs":[{"name":"_fee","type":"uint256","internalType":"uint256"}],"outputs":[],"stateMutability":"nonpayable"},{"type":"function","name":"owner","inputs":[],"outputs":[{"name":"","type":"address","internalType":"address"}],"stateMutability":"view"},{"type":"function","name":"proxiableUUID","inputs":[],"outputs":[{"name":"","type":"bytes32","internalType":"bytes32"}],"stateMutability":"view"},{"type":"function","name":"renounceOwnership","inputs":[],"outputs":[],"stateMutability":"nonpayable"},{"type":"function","name":"transferOwnership","inputs":[{"name":"newOwner","type":"address","internalType":"address"}],"outputs":[],"stateMutability":"nonpayable"},{"type":"function","name":"updateFee","inputs":[{"name":"_newfee","type":"uint256","internalType":"uint256"}],"outputs":[],"stateMutability":"nonpayable"},{"type":"function","name":"upgradeToAndCall","inputs":[{"name":"newImplementation","type":"address","internalType":"address"},{"name":"data","type":"bytes","internalType":"bytes"}],"outputs":[],"stateMutability":"payable"},{"type":"function","name":"userData","inputs":[{"name":"","type":"address","internalType":"address"}],"outputs":[{"name":"balance","type":"uint256","internalType":"uint256"},{"name":"timestamp","type":"uint256","internalType":"uint256"},{"name":"alreadyDeposited","type":"bool","internalType":"bool"}],"stateMutability":"view"},{"type":"function","name":"vault","inputs":[],"outputs":[{"name":"totalDeposit","type":"uint256","internalType":"uint256"},{"name":"totalUser","type":"uint256","internalType":"uint256"},{"name":"fee","type":"uint256","internalType":"uint256"},{"name":"status","type":"bool","internalType":"bool"}],"stateMutability":"view"},{"type":"function","name":"vaultBalance","inputs":[],"outputs":[{"name":"","type":"uint256","internalType":"uint256"}],"stateMutability":"view"},{"type":"function","name":"withdraw","inputs":[{"name":"amount","type":"uint256","internalType":"uint256"}],"outputs":[{"name":"amountWithdrawn","type":"uint256","internalType":"uint256"}],"stateMutability":"nonpayable"},{"type":"function","name":"withdrawFee","inputs":[{"name":"reciever","type":"address","internalType":"address"}],"outputs":[],"stateMutability":"nonpayable"},{"type":"event","name":"Initialized","inputs":[{"name":"version","type":"uint64","indexed":false,"internalType":"uint64"}],"anonymous":false},{"type":"event","name":"OwnershipTransferred","inputs":[{"name":"previousOwner","type":"address","indexed":true,"internalType":"address"},{"name":"newOwner","type":"address","indexed":true,"internalType":"address"}],"anonymous":false},{"type":"event","name":"Upgraded","inputs":[{"name":"implementation","type":"address","indexed":true,"internalType":"address"}],"anonymous":false},{"type":"error","name":"AddressEmptyCode","inputs":[{"name":"target","type":"address","internalType":"address"}]},{"type":"error","name":"ERC1967InvalidImplementation","inputs":[{"name":"implementation","type":"address","internalType":"address"}]},{"type":"error","name":"ERC1967NonPayable","inputs":[]},{"type":"error","name":"FailedCall","inputs":[]},{"type":"error","name":"InsufficientBalance","inputs":[]},{"type":"error","name":"InsufficientDeposit","inputs":[]},{"type":"error","name":"InvalidInitialization","inputs":[]},{"type":"error","name":"NotAdmin","inputs":[]},{"type":"error","name":"NotInitializing","inputs":[]},{"type":"error","name":"OwnableInvalidOwner","inputs":[{"name":"owner","type":"address","internalType":"address"}]},{"type":"error","name":"OwnableUnauthorizedAccount","inputs":[{"name":"account","type":"address","internalType":"address"}]},{"type":"error","name":"Paused","inputs":[]},{"type":"error","name":"ReentrancyGuardReentrantCall","inputs":[]},{"type":"error","name":"TransferUnsuccessful","inputs":[]},{"type":"error","name":"UUPSUnauthorizedCallContext","inputs":[]},{"type":"error","name":"UUPSUnsupportedProxiableUUID","inputs":[{"name":"slot","type":"bytes32","internalType":"bytes32"}]}],"bytecode":{"object":"0x60a06040523073ffffffffffffffffffffffffffffffffffffffff1660809073ffffffffffffffffffffffffffffffffffffffff16815250348015610042575f5ffd5b50600161006161005661007a60201b60201c565b6100a360201b60201c565b5f01819055506100756100ac60201b60201c565b610227565b5f7f9b779b17422d0df92223018b32b4d1fa46e071723d6817e2486d003becc55f005f1b905090565b5f819050919050565b5f6100bb6101aa60201b60201c565b9050805f0160089054906101000a900460ff1615610105576040517ff92ee8a900000000000000000000000000000000000000000000000000000000815260040160405180910390fd5b67ffffffffffffffff8016815f015f9054906101000a900467ffffffffffffffff1667ffffffffffffffff16146101a75767ffffffffffffffff815f015f6101000a81548167ffffffffffffffff021916908367ffffffffffffffff1602179055507fc7f505b2f371ae2175ee4913f4499e1f2633a7b5936321eed1cdaeb6115181d267ffffffffffffffff60405161019e919061020e565b60405180910390a15b50565b5f5f6101ba6101c360201b60201c565b90508091505090565b5f7ff0c57e16840df040f15088dc2f81fe391c3923bec73e23a9662efc9c229c6a005f1b905090565b5f67ffffffffffffffff82169050919050565b610208816101ec565b82525050565b5f6020820190506102215f8301846101ff565b92915050565b608051611c0361024d5f395f8181610d2001528181610d750152610f2f0152611c035ff3fe608060405260043610610101575f3560e01c80639012c4a811610094578063d0e30db011610063578063d0e30db014610304578063e1e158a514610322578063f2fde38b1461034c578063fbfa77cf14610374578063fe4b84df146103a157610108565b80639012c4a81461024a578063ad3cb1cc14610272578063bf333f2c1461029c578063c8910913146102c657610108565b806352d1902d116100d057806352d1902d146101b657806360b71d4e146101e0578063715018a61461020a5780638da5cb5b1461022057610108565b80630bf6cc081461010c5780631ac3ddeb146101365780632e1a7d4d1461015e5780634f1ef2861461019a57610108565b3661010857005b5f5ffd5b348015610117575f5ffd5b506101206103c9565b60405161012d9190611593565b60405180910390f35b348015610141575f5ffd5b5061015c60048036038101906101579190611617565b6103d0565b005b348015610169575f5ffd5b50610184600480360381019061017f919061166c565b61048e565b6040516101919190611593565b60405180910390f35b6101b460048036038101906101af91906117d3565b610633565b005b3480156101c1575f5ffd5b506101ca610652565b6040516101d79190611845565b60405180910390f35b3480156101eb575f5ffd5b506101f4610683565b6040516102019190611593565b60405180910390f35b348015610215575f5ffd5b5061021e610698565b005b34801561022b575f5ffd5b506102346106ab565b604051610241919061186d565b60405180910390f35b348015610255575f5ffd5b50610270600480360381019061026b919061166c565b6106e0565b005b34801561027d575f5ffd5b506102866106f4565b60405161029391906118e6565b60405180910390f35b3480156102a7575f5ffd5b506102b061072d565b6040516102bd9190611593565b60405180910390f35b3480156102d1575f5ffd5b506102ec60048036038101906102e79190611617565b610732565b6040516102fb93929190611920565b60405180910390f35b61030c610764565b6040516103199190611593565b60405180910390f35b34801561032d575f5ffd5b506103366109b4565b6040516103439190611593565b60405180910390f35b348015610357575f5ffd5b50610372600480360381019061036d9190611617565b6109c0565b005b34801561037f575f5ffd5b50610388610a44565b6040516103989493929190611955565b60405180910390f35b3480156103ac575f5ffd5b506103c760048036038101906103c2919061166c565b610a6c565b005b5f47905090565b6103d8610c12565b5f5f5f0154476103e891906119c5565b90505f8273ffffffffffffffffffffffffffffffffffffffff168260405161040f90611a25565b5f6040518083038185875af1925050503d805f8114610449576040519150601f19603f3d011682016040523d82523d5f602084013e61044e565b606091505b5050905080610489576040517f28dc5c3300000000000000000000000000000000000000000000000000000000815260040160405180910390fd5b505050565b5f610497610c99565b61049f610ce2565b60045f3373ffffffffffffffffffffffffffffffffffffffff1673ffffffffffffffffffffffffffffffffffffffff1681526020019081526020015f205f0154821115610518576040517ff4d678b800000000000000000000000000000000000000000000000000000000815260040160405180910390fd5b815f5f015f82825461052a91906119c5565b925050819055508160045f3373ffffffffffffffffffffffffffffffffffffffff1673ffffffffffffffffffffffffffffffffffffffff1681526020019081526020015f205f015f82825461057f91906119c5565b925050819055505f3373ffffffffffffffffffffffffffffffffffffffff16836040516105ab90611a25565b5f6040518083038185875af1925050503d805f81146105e5576040519150601f19603f3d011682016040523d82523d5f602084013e6105ea565b606091505b5050905080610625576040517f28dc5c3300000000000000000000000000000000000000000000000000000000815260040160405180910390fd5b5061062e610d04565b919050565b61063b610d1e565b61064482610e04565b61064e8282610e0f565b5050565b5f61065b610f2d565b7f360894a13ba1a3210667c828492db98dca3e2076cc3735a920a3ca505d382bbc5f1b905090565b5f5f5f01544761069391906119c5565b905090565b6106a0610c12565b6106a95f610fb4565b565b5f5f6106b5611085565b9050805f015f9054906101000a900473ffffffffffffffffffffffffffffffffffffffff1691505090565b6106e8610c12565b805f6002018190555050565b6040518060400160405280600581526020017f352e302e3000000000000000000000000000000000000000000000000000000081525081565b606481565b6004602052805f5260405f205f91509050805f015490806001015490806002015f9054906101000a900460ff16905083565b5f61076d610c99565b610775610ce2565b3490505f60645f600201548361078b9190611a39565b6107959190611aa7565b826107a091906119c5565b905067016345785d8a00008210156107e4576040517f0e1eddda00000000000000000000000000000000000000000000000000000000815260040160405180910390fd5b5f60045f3373ffffffffffffffffffffffffffffffffffffffff1673ffffffffffffffffffffffffffffffffffffffff1681526020019081526020015f205f015414801561087c575060045f3373ffffffffffffffffffffffffffffffffffffffff1673ffffffffffffffffffffffffffffffffffffffff1681526020019081526020015f206002015f9054906101000a900460ff16155b156108f55760015f6001015f8282546108959190611ad7565b92505081905550600160045f3373ffffffffffffffffffffffffffffffffffffffff1673ffffffffffffffffffffffffffffffffffffffff1681526020019081526020015f206002015f6101000a81548160ff0219169083151502179055505b805f5f015f8282546109079190611ad7565b925050819055508060045f3373ffffffffffffffffffffffffffffffffffffffff1673ffffffffffffffffffffffffffffffffffffffff1681526020019081526020015f205f015f82825461095c9190611ad7565b925050819055504260045f3373ffffffffffffffffffffffffffffffffffffffff1673ffffffffffffffffffffffffffffffffffffffff1681526020019081526020015f2060010181905550506109b1610d04565b90565b67016345785d8a000081565b6109c8610c12565b5f73ffffffffffffffffffffffffffffffffffffffff168173ffffffffffffffffffffffffffffffffffffffff1603610a38575f6040517f1e4fbdf7000000000000000000000000000000000000000000000000000000008152600401610a2f919061186d565b60405180910390fd5b610a4181610fb4565b50565b5f805f015490806001015490806002015490806003015f9054906101000a900460ff16905084565b5f610a756110ac565b90505f815f0160089054906101000a900460ff161590505f825f015f9054906101000a900467ffffffffffffffff1690505f5f8267ffffffffffffffff16148015610abd5750825b90505f60018367ffffffffffffffff16148015610af057505f3073ffffffffffffffffffffffffffffffffffffffff163b145b905081158015610afe575080155b15610b35576040517ff92ee8a900000000000000000000000000000000000000000000000000000000815260040160405180910390fd5b6001855f015f6101000a81548167ffffffffffffffff021916908367ffffffffffffffff1602179055508315610b82576001855f0160086101000a81548160ff0219169083151502179055505b610b8b336110bf565b855f6002018190555060015f6003015f6101000a81548160ff0219169083151502179055508315610c0a575f855f0160086101000a81548160ff0219169083151502179055507fc7f505b2f371ae2175ee4913f4499e1f2633a7b5936321eed1cdaeb6115181d26001604051610c019190611b5f565b60405180910390a15b505050505050565b610c1a6110d3565b73ffffffffffffffffffffffffffffffffffffffff16610c386106ab565b73ffffffffffffffffffffffffffffffffffffffff1614610c9757610c5b6110d3565b6040517f118cdaa7000000000000000000000000000000000000000000000000000000008152600401610c8e919061186d565b60405180910390fd5b565b5f6003015f9054906101000a900460ff16610ce0576040517f9e87fac800000000000000000000000000000000000000000000000000000000815260040160405180910390fd5b565b610cea6110da565b6002610cfc610cf761111b565b611144565b5f0181905550565b6001610d16610d1161111b565b611144565b5f0181905550565b7f000000000000000000000000000000000000000000000000000000000000000073ffffffffffffffffffffffffffffffffffffffff163073ffffffffffffffffffffffffffffffffffffffff161480610dcb57507f000000000000000000000000000000000000000000000000000000000000000073ffffffffffffffffffffffffffffffffffffffff16610db261114d565b73ffffffffffffffffffffffffffffffffffffffff1614155b15610e02576040517fe07c8dba00000000000000000000000000000000000000000000000000000000815260040160405180910390fd5b565b610e0c610c12565b50565b8173ffffffffffffffffffffffffffffffffffffffff166352d1902d6040518163ffffffff1660e01b8152600401602060405180830381865afa925050508015610e7757506040513d601f19601f82011682018060405250810190610e749190611ba2565b60015b610eb857816040517f4c9c8ce3000000000000000000000000000000000000000000000000000000008152600401610eaf919061186d565b60405180910390fd5b7f360894a13ba1a3210667c828492db98dca3e2076cc3735a920a3ca505d382bbc5f1b8114610f1e57806040517faa1d49a4000000000000000000000000000000000000000000000000000000008152600401610f159190611845565b60405180910390fd5b610f2883836111a0565b505050565b7f000000000000000000000000000000000000000000000000000000000000000073ffffffffffffffffffffffffffffffffffffffff163073ffffffffffffffffffffffffffffffffffffffff1614610fb2576040517fe07c8dba00000000000000000000000000000000000000000000000000000000815260040160405180910390fd5b565b5f610fbd611085565b90505f815f015f9054906101000a900473ffffffffffffffffffffffffffffffffffffffff16905082825f015f6101000a81548173ffffffffffffffffffffffffffffffffffffffff021916908373ffffffffffffffffffffffffffffffffffffffff1602179055508273ffffffffffffffffffffffffffffffffffffffff168173ffffffffffffffffffffffffffffffffffffffff167f8be0079c531659141344cd1fd0a4f28419497f9722a3daafe3b4186f6b6457e060405160405180910390a3505050565b5f7f9016d09d72d40fdae2fd8ceac6b6234c7706214fd39c1cd1e609a0528c199300905090565b5f5f6110b6611212565b90508091505090565b6110c761123b565b6110d08161127b565b50565b5f33905090565b6110e26112ff565b15611119576040517f3ee5aeb500000000000000000000000000000000000000000000000000000000815260040160405180910390fd5b565b5f7f9b779b17422d0df92223018b32b4d1fa46e071723d6817e2486d003becc55f005f1b905090565b5f819050919050565b5f6111797f360894a13ba1a3210667c828492db98dca3e2076cc3735a920a3ca505d382bbc5f1b61131b565b5f015f9054906101000a900473ffffffffffffffffffffffffffffffffffffffff16905090565b6111a982611324565b8173ffffffffffffffffffffffffffffffffffffffff167fbc7cd75a20ee27fd9adebab32041f755214dbc6bffa90cc0225b39da2e5c2d3b60405160405180910390a25f81511115611205576111ff82826113ed565b5061120e565b61120d6114de565b5b5050565b5f7ff0c57e16840df040f15088dc2f81fe391c3923bec73e23a9662efc9c229c6a005f1b905090565b61124361151a565b611279576040517fd7e6bcf800000000000000000000000000000000000000000000000000000000815260040160405180910390fd5b565b61128361123b565b5f73ffffffffffffffffffffffffffffffffffffffff168173ffffffffffffffffffffffffffffffffffffffff16036112f3575f6040517f1e4fbdf70000000000000000000000000000000000000000000000000000000081526004016112ea919061186d565b60405180910390fd5b6112fc81610fb4565b50565b5f600261131261130d61111b565b611144565b5f015414905090565b5f819050919050565b5f8173ffffffffffffffffffffffffffffffffffffffff163b0361137f57806040517f4c9c8ce3000000000000000000000000000000000000000000000000000000008152600401611376919061186d565b60405180910390fd5b806113ab7f360894a13ba1a3210667c828492db98dca3e2076cc3735a920a3ca505d382bbc5f1b61131b565b5f015f6101000a81548173ffffffffffffffffffffffffffffffffffffffff021916908373ffffffffffffffffffffffffffffffffffffffff16021790555050565b60605f6113fa8484611538565b905080801561143057505f61140d61154c565b118061142f57505f8473ffffffffffffffffffffffffffffffffffffffff163b115b5b156114455761143d611553565b9150506114d8565b801561148857836040517f9996b31500000000000000000000000000000000000000000000000000000000815260040161147f919061186d565b60405180910390fd5b5f61149161154c565b11156114a45761149f611570565b6114d6565b6040517fd6bda27500000000000000000000000000000000000000000000000000000000815260040160405180910390fd5b505b92915050565b5f341115611518576040517fb398979f00000000000000000000000000000000000000000000000000000000815260040160405180910390fd5b565b5f6115236110ac565b5f0160089054906101000a900460ff16905090565b5f5f5f835160208501865af4905092915050565b5f3d905090565b606060405190503d81523d5f602083013e3d602001810160405290565b6040513d5f823e3d81fd5b5f819050919050565b61158d8161157b565b82525050565b5f6020820190506115a65f830184611584565b92915050565b5f604051905090565b5f5ffd5b5f5ffd5b5f73ffffffffffffffffffffffffffffffffffffffff82169050919050565b5f6115e6826115bd565b9050919050565b6115f6816115dc565b8114611600575f5ffd5b50565b5f81359050611611816115ed565b92915050565b5f6020828403121561162c5761162b6115b5565b5b5f61163984828501611603565b91505092915050565b61164b8161157b565b8114611655575f5ffd5b50565b5f8135905061166681611642565b92915050565b5f60208284031215611681576116806115b5565b5b5f61168e84828501611658565b91505092915050565b5f5ffd5b5f5ffd5b5f601f19601f8301169050919050565b7f4e487b71000000000000000000000000000000000000000000000000000000005f52604160045260245ffd5b6116e58261169f565b810181811067ffffffffffffffff82111715611704576117036116af565b5b80604052505050565b5f6117166115ac565b905061172282826116dc565b919050565b5f67ffffffffffffffff821115611741576117406116af565b5b61174a8261169f565b9050602081019050919050565b828183375f83830152505050565b5f61177761177284611727565b61170d565b9050828152602081018484840111156117935761179261169b565b5b61179e848285611757565b509392505050565b5f82601f8301126117ba576117b9611697565b5b81356117ca848260208601611765565b91505092915050565b5f5f604083850312156117e9576117e86115b5565b5b5f6117f685828601611603565b925050602083013567ffffffffffffffff811115611817576118166115b9565b5b611823858286016117a6565b9150509250929050565b5f819050919050565b61183f8161182d565b82525050565b5f6020820190506118585f830184611836565b92915050565b611867816115dc565b82525050565b5f6020820190506118805f83018461185e565b92915050565b5f81519050919050565b5f82825260208201905092915050565b8281835e5f83830152505050565b5f6118b882611886565b6118c28185611890565b93506118d28185602086016118a0565b6118db8161169f565b840191505092915050565b5f6020820190508181035f8301526118fe81846118ae565b905092915050565b5f8115159050919050565b61191a81611906565b82525050565b5f6060820190506119335f830186611584565b6119406020830185611584565b61194d6040830184611911565b949350505050565b5f6080820190506119685f830187611584565b6119756020830186611584565b6119826040830185611584565b61198f6060830184611911565b95945050505050565b7f4e487b71000000000000000000000000000000000000000000000000000000005f52601160045260245ffd5b5f6119cf8261157b565b91506119da8361157b565b92508282039050818111156119f2576119f1611998565b5b92915050565b5f81905092915050565b50565b5f611a105f836119f8565b9150611a1b82611a02565b5f82019050919050565b5f611a2f82611a05565b9150819050919050565b5f611a438261157b565b9150611a4e8361157b565b9250828202611a5c8161157b565b91508282048414831517611a7357611a72611998565b5b5092915050565b7f4e487b71000000000000000000000000000000000000000000000000000000005f52601260045260245ffd5b5f611ab18261157b565b9150611abc8361157b565b925082611acc57611acb611a7a565b5b828204905092915050565b5f611ae18261157b565b9150611aec8361157b565b9250828201905080821115611b0457611b03611998565b5b92915050565b5f819050919050565b5f67ffffffffffffffff82169050919050565b5f819050919050565b5f611b49611b44611b3f84611b0a565b611b26565b611b13565b9050919050565b611b5981611b2f565b82525050565b5f602082019050611b725f830184611b50565b92915050565b611b818161182d565b8114611b8b575f5ffd5b50565b5f81519050611b9c81611b78565b92915050565b5f60208284031215611bb757611bb66115b5565b5b5f611bc484828501611b8e565b9150509291505056fea2646970667358221220070fdce70c2942b6ef0c766c299502f24e07da994f30c293ab0800aaea66dc0364736f6c634300081e0033","linkReferences":{}},"methodIdentifiers":{"FEE_BPS()":"bf333f2c","MIN_DEPOSIT()":"e1e158a5","UPGRADE_INTERFACE_VERSION()":"ad3cb1cc","deposit()":"d0e30db0","feeBalance()":"60b71d4e","initialize(uint256)":"fe4b84df","owner()":"8da5cb5b","proxiableUUID()":"52d1902d","renounceOwnership()":"715018a6","transferOwnership(address)":"f2fde38b","updateFee(uint256)":"9012c4a8","upgradeToAndCall(address,bytes)":"4f1ef286","userData(address)":"c8910913","vault()":"fbfa77cf","vaultBalance()":"0bf6cc08","withdraw(uint256)":"2e1a7d4d","withdrawFee(address)":"1ac3ddeb"},"id":38}